:1005130041544E44414E434520434C45415245448A
:1005230000544F54414C20415454454E44414E4392
:1005330045004D41524B454420414C52454144599D
:100543002120002020205246494420424153454463
:10055300202020004154454E44414E4345205359E9
:100563005354454D0033343030313734354334330D
:10057300343030313746313341313630303635441B
:100583003133303139303034414232333331393021
:0705930030344143383935D3
:1006AC00013300013400013500013600013700012F
:0206BC0032000A
:04061E007FD07E0704
:100622007D017C007B017A00D3EB9FEE6480F8EAC7
:1006320064809850070BBB00010A80EC0DBD0001DD
:070642000CED64334C70DD88
:01064900228E
:1005E800C2907F3812069C7F0112069C7F0F12066C
:1005F8009C7F0C12069C7F8012069C7F4F1205D8A8
:100608007F4B1205D87FE87E031206227F0112066F
:060618009C7F8002069C9D
:10059A007F571205D87F451205D87F4C1205D87FA0
:1005AA00431205D87F4F1205D87F4D1205D87F45D3
:1005BA001205D87F201205D87F551205D87F53120D
:0E05CA0005D87F451205D87F521205D87F2034
:1005D800D2908F80D2917F0A7E00120622C2912289
:100670008B1F8A208921AB1FAA20A92112032C607D
:10068000130521E5217002052014F912032CFF1235
:0506900005D880E22204
:0603DC008F1F8A208B2117
:1003E200E4F522F5238C268D2712069CE4F524F5EC
:1003F20025C3E5259521E5206480F8E524648098ED
:10040200500F7F201205D80525E52570E4052480CC
:10041200E0E52745266063E5274526602FAE26AF37
:10042200277C007D0A120345ED2430FF7428252322
:10043200F8A607AE26AF277C007D0A1203458E265A
:100442008F270523E52370CF052280CBAF1F12062D
:100452009CE52324FFF525E52234FFF524C3E5249A
:1004620064809480401E74282525F8E6FF1205D882
:10047200E525152570E7152480E3AF1F12069C7F42
:04048200301205D857
:010486002253
:070695007F0112069C7F802B
:10069C00C2908F80D2917F0A7E00120622C29122D4
:0F06D000758922759850758DFD758BFDD28E2220
:0706BF007F201205D87F3CEB
:0A06C600C2998F993099FDC2992264
:100003001206957F201205D37F201205D87F501248
:1000130005D87F4C1205D87F411205D87F431205BE
:10002300D87F451205D37F431205D87F411205D8E7
:100033007F521205D87F441205D37F201205D3C205
:1000430098E4F50AF50B30980302011420922FE48B
:10005300F533F534F535F536F5371206957F3C1251
:1000630006C67F431206C67F3E1206C67BFF7A058D
:100073007913120670E4F5323092FD02010C2093DD
:10008300C51206957BFF7A057924120670E532FDC9
:100093003395E0FC7B067A007FC01203DC7FC41239
:1000A300069C7F501205D87F3A1205D8AF33EF3341
:1000B30095E0FEEF64014E70057F311205D3AF3436
:1000C300EF3395E0FEEF64014E70057F321205D3E6
:1000D300AF35EF3395E0FEEF64014E70057F3312C9
:1000E30005D3AF36EF3395E0FEEF64014E70057F25
:1000F300341205D3AF37EF3395E0FEEF64014E7052
:10010300057F351205D33093FD12061E7E007F1442
:10011300227410250BF8A699C298050BE50B700203
:10012300050AC3940CE50A648094805003020049D5
:100133007FC312069CE4F50AF50B7410250BF8E651
:10014300FF1205D8050BE50B7002050AC3940AE5F7
:100153000A6480948040E312061EE4F50EF50FE472
:10016300F50CF50DF50AF50B90056875F00AE50F2A
:1001730012037BE50E75F00AA42583F583E582253A
:100183000BF582E583350AF583E493FF7410250BA1
:10019300F8E6B50708050DE50D7002050C050BE53E
:1001A3000B7002050A640A450A70BD120695E50D37
:1001B300640A450C700AE50F2401FFE4350EFE22A4
:1001C300050FE50F7002050EC39405E50E648094D8
:1001D30080408C7F491205D87F4E1205D87F561276
:1001E30005D87F411205D87F4C1205D87F491205E7
:1001F300D87F441205D37F431205D87F411205D817
:100203007F521205D87F441205D812061EE4FEFF62
:0102130022C8
:10021400E4F508F5097F4F1206C67F4B1206C61295
:1002240000038E088F09D3E5099400E508648094DF
:100234008040ECD3E5099405E5086480948050DFA0
:10024400120695E50964014508701CAF33EF339538
:10025400E04F701375330112059A7F311205D312E2
:1002640006BF7F310202F7E50964024508701CAF3E
:1002740034EF3395E04F701375340112059A7F32D1
:100284001205D31206BF7F320202F7E50964034563
:1002940008701CAF35EF3395E04F701375350112BC
:1002A400059A7F331205D31206BF7F330202F7E5A6
:1002B4000964044508701BAF36EF3395E04F7012A4
:1002C40075360112059A7F341205D31206BF7F34A6
:1002D4008021E509640545087025AF37EF3395E0C3
:1002E4004F701C75370112059A7F351205D312061B
:1002F400BF7F351206C67F3E1206C605328023E54F
:100304000964144508601B1206957BFF7A0579354C
:100314001206707F3C1206C67F581206C67F3E1234
:0803240006C612061E020223A8
:10064A001205E81206D01206957BFF7A0579461242
:10065A0006707FC012069C7BFF7A057957120670D6
:06066A0012061E0202143C
:0300000002048770
:0C048700787FE4F6D8FD7581370204CEC2
:10032C00BB010689828A83E0225002E722BBFE02CF
:09033C00E32289828A83E4932202
:10034500C2D5EC30E709B2D5E4C39DFDE49CFCEED3
:1003550030E715B2D5E4C39FFFE49EFE120387C3C1
:10036500E49DFDE49CFC800312038730D507C3E4BC
:060375009FFFE49EFE2242
:0C037B00A42582F582E5F03583F583228D
:1004930002064AE493A3F8E493A34003F68001F22F
:1004A30008DFF48029E493A3F85407240CC8C3336A
:1004B300C4540F4420C8834004F456800146F6DF39
:1004C300E4800B01020408102040809006ACE47E17
:1004D300019360BCA3FF543F30E509541FFEE4932E
:1004E300A360010ECF54C025E060A840B8E493A3F5
:1004F300FAE493A3F8E493A3C8C582C8CAC583CA20
:10050300F0A3C8C582C8CAC583CADFE9DEE780BED7
:0106BE00003B
:10038700BC000BBE0029EF8DF084FFADF022E4CC5A
:10039700F875F008EF2FFFEE33FEEC33FCEE9DEC23
:1003A700984005FCEE9DFE0FD5F0E9E4CEFD22ED69
:1003B700F8F5F0EE8420D21CFEADF075F008EF2FB3
:1003C700FFED33FD4007985006D5F0F222C398FDA4
:0503D7000FD5F0EA2241
:00000001FF
