:100577005363616E20596F757220436172643A004C
:10058700496E76616C6964204361726400547279C4
:1005970020416E6F74686572204361726400204168
:1005A7007474656E64656400205341544857494B21
:1005B7002000454E54524945533A200025640020F7
:1005C70050524153414E54482000204B4152544809
:1005D700494B2000454E5452494553203A20002D9F
:1005E7002D2D524649442042617365642D2D2D00FF
:1005F700417474656E64616E636520737973746D9D
:10060700002D2D2D5573696E6720383035312D2D0E
:100617002D003341303031373441433833413030A6
:100627003138304436423341303031373436324155
:10087E00011A00011B00011C00011D00011E0001D8
:02088E00130055
:0607C400D2927F057E00C9
:1007CA00E4FDFCC3ED9FEE6480F8EC64809850155C
:1007DA00E4FBFA0BBB00010ABA04F8BBFBF50DBD3A
:0507EA0000010C80DE9F
:0107EF0022E7
:0808AA00D2901207C4C2922291
:10086B00A907E954F0F5901208AAE9C454F0F590E1
:03087B000208AAC6
:0808B200C2901207C4C2922299
:09083B007FC87E001207CA7F018C
:10084400A907E954F0F5901208B2E9C454F0F59000
:030854000208B2E5
:0B0796007F011208447BFF7A0579A563
:1007A1008B398A3A893BAB39AA3AA93B120637FF02
:1007B100601012086B7401253BF53BE4353AF53ABC
:0307C10080E422AF
:100857007F021208447F281208447F0E1208447F43
:04086700010208443E
:0F089100758922759850758DFD758BFDD28E225D
:0A08A000C2998F993099FDC2992288
:10081700D2A4C2A37F2C7E011207CAC2A4C2A37F9F
:10082700C81E1207CAC2A4D2A37F2C0E1207CAC2BF
:04083700A4C2A32292
:10035F007F011208447F801208447BFF7A0579776A
:10036F001207A1C298E4F524F5253098FD742A25CB
:10037F0025F8A699C2980525E52570020524640C79
:10038F00452470E67FC3120844E4F524F525742A4A
:10039F002525F8E6FF12086B0525E52570020524D3
:1003AF00C3940AE5246480948040E37FC87E0012E2
:1003BF0007CAE4F528F529E4F526F527F524F525F0
:1003CF0090061975F00AE529120650E52875F00A0E
:1003DF00A42583F583E5822525F582E5833524F56C
:1003EF0083E493FF742A2525F8E6B507080527E56A
:1003FF0027700205260525E52570020524640A45A8
:10040F002470BD7F011208447F80120844E52764E1
:10041F000A4526700AE5292401FFE43528FE220546
:10042F0029E52970020528C39405E5286480948086
:10043F0040857F011208447BFF7A0579871207A157
:10044F007FC01208447BFF7A0579941207A1C2A6D8
:0F045F007F2C7E011207CAD2A61207CAE41EFF25
:01046E00226B
:10046F00E4F522F52312035F8E228F23D3E5239425
:10047F0000E5226480948040ECD3E5239403E522C9
:10048F006480948050DF7F011208447F80120844FB
:10049F00E5236401452270370515E5157002051433
:1004AF0012079612083B7BFF7A0579AF1207A17FDF
:1004BF00C01208447BFF7A0579B91207A17527FF8F
:1004CF007528057529C385142A85152B020558E54E
:1004DF00236402452270360517E5177002051612C0
:1004EF00079612083B7BFF7A0579C61207A17FC0DA
:1004FF001208447BFF7A0579B91207A17527FF759A
:10050F0028057529C385162A85172B803CE523649A
:10051F0003452270490519E519700205181207964F
:10052F0012083B7BFF7A0579D11207A17FC0120811
:10053F00447BFF7A0579DB1207A17527FF75280524
:10054F007529C385182A85192B7B007A0079121219
:10055F00005F7B007A0079121207A11208177FC87B
:08056F007E001207CA020474A9
:10075D001208571208917F011208447F8012084435
:10076D007BFF7A0579E61207A17FC01208447BFF53
:10077D007A0579F71207A112083B7BFF7A067908F3
:09078D001207A112083B02046FDF
:030000000206D124
:0C06D100787FE4F6D8FD75813B02071825
:10063700BB010689828A83E0225002E722BBFE02C1
:09064700E32289828A83E49322F4
:0C065000A42582F582E5F03583F58322B5
:10000300E5332427F8E605332278243007027827DE
:10001300E475F00112069B0206372000EB7F2ED217
:10002300008018EF540F2490D43440D4FF30040BD5
:10003300EF24BFB41A0050032461FFE534600215B6
:10004300340537E5377002053630070D7824E4753B
:10005300F00112069BEF0206890207F07403D20730
:100063008003E4C207F5338B248A258926E4F5341B
:10007300F536F537E53460077F2012003E80F575CD
:1000830035FFC201C200C202C203C205C206C208D2
:1000930012000CFF700D3007057F0012004FAF37C1
:1000A300AE3622B4255FC2D5C20412000CFF24D0A1
:1000B300B40A00501A75F00A783430D50508B6FF33
:1000C3000106C6A426F620D5047002D20380D924E3
:1000D300CFB41A00EF5004C2E5D20402024FD2019A
:1000E30080C6D20080C0D20280BCD2D580BAD205ED
:1000F30080B47F2012003E2002077401B534004013
:10010300F1120003FF12003E020077D208D20680EC
:1001130095120003FB120003FA120003F94A4B7015
:100123000679207A037BFF20022EE534602A7E00C5
:100133008E8275830012065C60060EEE653570F0E4
:10014300C2D5EBC0E0EAC0E0E9C0E0EE120296D00F
:10015300E0F9D0E0FAD0E0FB120637FF60AAEBC06B
:10016300E0EAC0E0E9C0E012003ED0E02401F9D0AB
:10017300E03400FAD0E0FBE5350460DCD535D98006
:10018300877BFF7A027992D202809C791080027970
:1001930008C206C2088008D2D5790A8004790AC247
:1001A300D5E535047002F535E4FAFDFEFF120003D0
:1001B300FC7B08200113120003FD7B1030000A12A0
:1001C3000003FE120003FF7B20EC3382D592D5504F
:1001D30013C3E43000069FFFE49EFEE42001039D69
:1001E300FDE49CFCE4CBF8C201EC700CCFCECDCC8B
:1001F300E824F8F870F38017C3EF33FFEE33FEED16
:1002030033FDEC33FCEB33FB994002FB0FD8E9EBF6
:10021300300105F8D0E0C448B201C0E00AEC4D4E0D
:100223004F78207B0070C2EAB5350040BCC0E012B5
:100233000298D0F0D0E0200104C4C0E0C4B201C0F1
:10024300F0120027D0F0D5F0EB0200771206AB01D5
:100253001453018E5800E54C00E14201924F019A7C
:0F02630044019A4900FA4301A0550184460184E1
:100272004501844703405000E92D00ED2E01102B6B
:1002820000F123010E2003292A00A94800000108D9
:100292003F3F3F00790AA2D5200314300509B91067
:1002A200020404B9080104A2D52006025001042068
:1002B20002689202B534005034C0E07F2030031946
:1002C2007F30A20272067205500F1202EFC202C202
:1002D20006C205C2087F30800F300503E9C0E01274
:1002E200003E300503D0E0F9D0E0B534CC3005173C
:1002F2007F30B9100C12003E7F583004077F78809F
:1003020003B9080312003E3002057F2D02003E7F32
:10031200202008F87F2B2006F322920280CF286E3D
:10032200756C6C2900D2011200033001F8C2017809
:100332003430D50108F60200A92D50434958120065
:10034200032403B405004001E490033B9312002F01
:0D035200743A12002FD20375340402018E9C
:1006DD0002075DE493A3F8E493A34003F68001F2CF
:1006ED0008DFF48029E493A3F85407240CC8C3331E
:1006FD00C4540F4420C8834004F456800146F6DFED
:10070D00E4800B010204081020408090087EE47EF6
:10071D00019360BCA3FF543F30E509541FFEE493E1
:10072D00A360010ECF54C025E060A840B8E493A3A8
:10073D00FAE493A3F8E493A3C8C582C8CAC583CAD3
:10074D00F0A3C8C582C8CAC583CADFE9DEE780BE8B
:010890000067
:10065C00BB010CE58229F582E5833AF583E0225053
:10066C0006E92582F8E622BBFE06E92582F8E2229D
:0D067C00E58229F582E5833AF583E49322B7
:10068900BB010689828A83F0225002F722BBFE0150
:02069900F3224A
:10069B00FAE6FB0808E6F925F0F618E6CA3AF62260
:1006AB00D083D082F8E4937012740193700DA3A3DE
:1006BB0093F8740193F5828883E4737402936860F2
:0606CB00EFA3A3A380DFF2
:1007F000EFB40A07740D1207FB740A309811A89918
:10080000B8130CC2983098FDA899C298B811F63068
:0708100099FDC299F5992240
:00000001FF
